:020000040800F2
:1000000088050020D1000008D9000008DB000008A6
:1000100000000000000000000000000000000000E0
:10002000000000000000000000000000DD000008EB
:100030000000000000000000DF000008CB200008E6
:10004000E3000008E3000008E3000008E300000804
:10005000E3000008DD020008E3000008E3000008F8
:10006000E3000008E3000008E3000008E3000008E4
:10007000E3000008E3000008E3000008E3000008D4
:10008000E3000008E30000080000000099210008D8
:10009000E3000008E3000008E30000086D15000815
:1000A000E3000008E3000008E300000895260008CC
:1000B000E300000800000000E30000080348854654
:1000C00000F07EF8004800472D2C0008880500202D
:1000D0000448804704480047FEE7FEE7FEE7FEE7E6
:1000E000FEE7FEE73D210008BD00000830B50B46E5
:1000F000014600202022012409E00D46D5409D4202
:1001000005D31D469540491B254695404019154687
:10011000521E002DF1DC30BD10B5202A04DB08464C
:10012000203AD040002110BD0B46D340D0402024BF
:10013000A21A91400843194610BDD2B201E00270E4
:10014000401C491EFBD270470022F6E710B513464B
:100150000A4604461946FFF7F0FF204610BDF0B5E9
:100160001FB40646002082B005464024019100904D
:100170001BE0019922460F463046FFF7CDFF049A57
:10018000059B801A994110D310461946224600F06B
:1001900029F8361A8F410197224601200021009F3D
:1001A00000F020F838184D4100902046641E0028C9
:1001B000DFDC019B00982946324607B0F0BD000005
:1001C000064C0125064E05E0E36807CC2B430C3CAA
:1001D00098471034B442F7D3FFF774FF0C58000867
:1001E0002C58000810B5202A04DB0146203A914023
:1001F000002010BD914020239C1A0346E340194380
:10020000904010BD38B509210120C906886101F070
:10021000BEFB3F246401204601F0A2FB0B4802F024
:100220003BFD0BA0009023461F2228210A2000F04E
:100230005DF80BA01F2200902346D20250210A2015
:1002400000F054F802F000F838BD0000F93400085E
:10025000524649442031332E35364D487A0000004D
:1002600050573A00F8B50E460746154604210520BA
:1002700000F029F80021012002F014FA80210A2060
:1002800001F018FF002405E0395D092002F00AFAA8
:10029000641CE4B2B442F7D30321012002F002FA55
:1002A000FF24052001F09AFE641E2406240E01D0CE
:1002B0004007F6D5222001F091FE2870212001F0A0
:1002C0008DFE6870F8BD70B50C46054601F086FEDF
:1002D000A0430146284602F0E5F970BD10B50120A3
:1002E00000F0D6F8022000F0D3F810BDFFB588B0BA
:1002F000044606909CE080283AD20D2804D020289D
:1003000008D9203880B206E00998069C103080B2E7
:10031000099029E0002000260001019001980025A5
:10032000871947498020C95DE840014206D00998F5
:100330000A9A801981B2601980B209E00B990A9873
:10034000884207D009980B9A801981B2601980B24F
:1003500000F07AF86D1CEDB2082DE2D3761CF6B2EF
:10036000102EDBD30834A4B21198401C11905FE02A
:1003700000200590222148433249119A0B5C1278E3
:1003800093424AD1401801904178119840788142B7
:1003900043D100250199002668000F18B978802004
:1003A000F040014206D009980A9A401981B2A0197A
:1003B00080B209E00B990A98884207D009980B9AF5
:1003C000401981B2A01980B200F03EF8761CF6B256
:1003D000082EE3D30026F9788020F040014207D0B0
:1003E00009980A9A401981B2A019083080B20AE02F
:1003F0000B990A98884208D009980B9A401981B243
:10040000A019083080B200F01FF8761CF6B2082E52
:10041000E1D36D1CEDB2102DBCD30598401C80B209
:1004200005900F28A6D31198801C1034A4B2119007
:1004300011980078002800D05DE70CB0F0BD0000F6
:10044000C62C0008B732000810B514464A1C93B2F7
:10045000421C92B201F0B2FA204601F071FA10BDCE
:1004600031B500F0D1F8044600F0CEF80099001B39
:100470008842F9D338BD00000121044A022803D084
:10048000012800D15170704711707047270000207B
:1004900010B504494A69024202D04861FFF7ECFFF7
:1004A00010BD000000040140F8B500238DE00124D8
:1004B0009C40A44622407DD04C68022C01D0122CD6
:1004C0000CD1DC08A40027183C6A5D07ED0E0F264E
:1004D000AE40B4430E69AE4026433E6205685E00FE
:1004E0000324B4400F79A543BF07BF0FB7402F4384
:1004F00007604D68012D05D0022D03D0112D01D0CC
:10050000122D0ED18568CF68A543B7402F43876071
:1005100047686546AF430D79ED06ED0F9D403D43BD
:100520004560C568A5438C68B4402C43C4604C68E2
:10053000E40049D5284CA56901263543A561A46985
:100540009D0834400094254CAD002F19BC689D07D0
:100550002E0F0F25B540AC430925ED06A84201D169
:1005600000250FE01E4DA84201D101250AE01D4DD6
:10057000A84201D1022505E01B4DA84201D1032567
:1005800000E00525B5402543BD60184C25684E6840
:100590009543F60300D51543256065684E6895437D
:1005A000B60300D515436560A5684E689543F6020D
:1005B00002D500E008E01543A560E5684E68954364
:1005C000B60200D51543E5605B1C0A681446DC40A2
:1005D00000D06CE7F8BD00000010024000000140B0
:1005E0000004004800080048000C004800040140D6
:1005F0000069084000D001207047002A01D08161C5
:100600007047816270470000014800687047000031
:100610002C00002070B502462032537D022B27D0DB
:10062000537D122B24D0537D222B21D0537D322B8E
:100630001ED0537D422B1BD0137D012B18D00123DC
:10064000137502245475046825689D432560046869
:1006500025681E03B5432560046825680D432560A1
:10066000006801681943016053750020107570BD62
:10067000022070BD10B501688A69D243D3050122FA
:10068000002B08DB0B68DB431B0604D4836B13438E
:1006900083631302CB6101688B69DB435B0509D47B
:1006A0000B68DB431B0605D4836B08242343836359
:1006B000E301CB6101688B69DB439B0509D40B68BF
:1006C000DB431B0605D4836B02242343836323028D
:1006D000CB61816B0B23194203D035210A5400F002
:1006E00092F810BD70B50546006881692C46C94373
:1006F00089072034002913DA8169C94309060FD517
:100700008169C94349060BD58169C943890607D563
:100710008169C943C90603D58169C943090709D459
:1007200001687A20884305D1607D322802D12846AD
:1007300001F0A4F828688169C94389070FD5816948
:10074000C94309060BD58169C943490607D58169A3
:10075000C943890603D58169C943C9060CD4016818
:100760007220884308D1607D122802D0607D522813
:1007700002D1284600F0B6FF28688169C9434907BD
:1007800013D58169C94309060FD58169C943490653
:100790000BD58169C943890607D58169C943C90653
:1007A00003D58169C94309070AD40068C0434006DC
:1007B000C00E05D1607D422802D1284601F014F810
:1007C00028688169C94349070FD58169C94309066A
:1007D0000BD58169C943490607D58169C943890693
:1007E00003D58169C943C9060CD4016874208843C4
:1007F00008D1607D222802D0607D622802D128467F
:1008000000F0EEFE70BD704770B5040006D02546BE
:100810002035687D0026002802D005E0012070BD4B
:100820002E75204600F046F80220687520680168A1
:100830004908490001600F21606809068843216862
:100840000861206882680121C9038A438260A06828
:10085000002807D0E268012A01D02121890208433B
:1008600021688860E068022802D12168800248601F
:10087000206841680C4A114341606169206908435E
:10088000A169090208432168C860216AE069084338
:10089000216808602068026801210A430260A6639B
:1008A0006975002070BD000000800002704770472D
:1008B0007047704700B50068114987B088421DD164
:1008C000C020009012200121019003200291049188
:1008D000039069460B48FFF7E7FD0B48C269012109
:1008E00049050A43C261C0690022084005901146CB
:1008F000172000F053F8172000F046F807B000BDAD
:100900000054004000040048001002407047704747
:1009100002480168491C0160704700002C0000205B
:1009200010B506480168102211430160002000F054
:1009300007F800F017F8002010BD0000002002406A
:1009400010B5044600F068F97D21C900FFF7CEFB21
:1009500000F0B4FB00222146501E00F01FF80020DA
:1009600010BD000008B5074881690122114381616B
:1009700080691040002200901146501E00F00EF8D1
:1009800008BD000000100240C106C90E01208840C9
:10099000014908607047000000E100E010B501F077
:1009A0000FF910BDF8B504460068314DC00342D5BB
:1009B000296A0320000262680140024091423AD055
:1009C000E96928040143E961E9692A4E014000917F
:1009D0003068A91508433060FFF716FE074604E0AB
:1009E000FFF712FEC01B64281BD83068C005F7D57E
:1009F000286A03273F022A6AB843012109040A43EF
:100A00002A622A6A8A432A62286280070ED5FFF783
:100A1000FBFD064607E0FFF7F7FD811B1648814204
:100A200001D90320F8BD286A8007F4D5286A6168D7
:100A3000B843084328622078C00705D0286BA16816
:100A400080088000084328632078800605D5286B3D
:100A500010218843E168084328632088400505D5B4
:100A6000286B402188432169084328630020F8BD92
:100A7000001002400070004088130000F8B50546E1
:100A800062480E460068F021C007C00F604CB042BB
:100A900054D25E4802685208520032430260006835
:100AA000C007C00FB0426ED12878800704D56068B7
:100AB0008843A968084360602878C00728D0686820
:100AC000012814D02168022814D0890700295ADA95
:100AD00061688908890001436160FFF795FD06465A
:100AE000686801280ED04B4F022817D021E02168FA
:100AF0008903EBE78901E9E7FFF786FD801BB84230
:100B000001D961E0434F60680007800F0128F3D1ED
:100B10006DE0FFF779FD801BB84255D8606800078B
:100B2000800F0228F5D162E0FFF76EFD801BB8420E
:100B30004AD860680007800FF6D158E0287880070F
:100B400004D560688843A968084360602878C007B6
:100B500040D06868012813D02168022814D0890782
:100B6000002942DA61688908890001436160FFF762
:100B70004BFD0746686801280ED0022818D025E0F2
:100B800021688903ECE730E08901E9E7FFF73CFDE4
:100B9000C11B2048814217D860680007800F0128D8
:100BA000F4D117E0FFF730FDC11B1A4881420BD882
:100BB00060680007800F0228F4D10BE0FFF724FDE6
:100BC000C11B1448814201D90320F8BD60680007A9
:100BD000800FF3D10D480168490849003143016095
:100BE0000068C007C00FB04201D00120F8BD2878CE
:100BF000400706D56068072109028843E968084371
:100C000060600020FFF79CFE0020F8BD002002403D
:100C1000001002408813000010B500F021F80549CB
:100C20004968054A0906090F515CC8400349086034
:100C300010BD000000100240F9570008000000201D
:100C400010B5FFF7E9FF04494968044A4905490F0F
:100C5000515CC84010BD000000100240F957000868
:100C600010B512A30FCB88B06C460FC413A30FCBE3
:100C70000FC416494A680C20134603401448042B3D
:100C80000FD0082B0DD193021B0F6C46E45CC96A90
:100C900004AB0907090F595CD20304D5FFF726FA04
:100CA000604308B010BD0B486043FAE70203040537
:100CB000060708090A0B0C0D0E0F101001020304A1
:100CC00005060708090A0B0C0D0E0F100010024054
:100CD00000127A0000093D00F8B504460078DD4DA9
:100CE000C0075CD068680007800F012807D06868DB
:100CF0000007800F022809D16868C00306D528685C
:100D000080034CD5606800287BD048E02868012625
:100D10003604B04328602868B700B8432860FFF75E
:100D200073FC009005E0FFF76FFC0099401A6428FF
:100D300068D828688003F6D4606801280AD00028A3
:100D400001D0052808D029682846B14329602968C0
:100D5000B94307E0284603E029682846394329605B
:100D6000016831430160606800280CD0FFF74CFC3B
:100D7000064604E0FFF748FC801B6428D8D82868A2
:100D80008003F7D50BE0FFF73FFC064604E0FFF7D2
:100D90003BFC801B6428CBD828688003F7D42078DC
:100DA0000127800700283DDA68680007800F07D018
:100DB00068680007800F022809D16868C00306D45C
:100DC0002868800715D5E06801281AD111E0E0688D
:100DD0000028286817D038432860FFF715FC06461E
:100DE00004E0FFF711FC801B6428A1D82868800765
:100DF000F7D52868F82188432169C900084328608D
:100E000010E025E1CCE0400840002860FFF7FCFB43
:100E1000064604E0FFF7F8FB801B642888D82868A2
:100E20008007F7D42078000721D5206A0028686A57
:100E30000ED038436862FFF7E7FB064604E0FFF791
:100E4000E3FB801B642899D8686A8007F7D50EE019
:100E5000400840006862FFF7D7FB064604E0FFF752
:100E6000D3FB801B642889D8686A8007F7D4207870
:100E700004264007002866DAE969B0060143E96103
:100E8000E9690140744800910168821511430160CD
:100E9000FFF7BAFB009005E0FFF7B6FB0099401A98
:100EA00064287DD86C480068C005F5D5286A4008DC
:100EB00040002862286AB0432862FFF7A5FB009033
:100EC00006E0FFF7A1FB0099411A6448814267D808
:100ED000286A8007F5D4A06801280BD0002801D02B
:100EE000052809D0296A2846490849002962296A43
:100EF000B14307E0284603E0296A284631432962C6
:100F0000016A39430162A06800280ED0FFF77CFB1C
:100F1000009006E0FFF778FB0099411A4F488142A4
:100F20003ED8286A8007F5D50DE0FFF76DFB0090ED
:100F300006E0FFF769FB0099411A484881422FD823
:100F4000286A8007F5D42078C00635D56069012865
:100F50000CD0401D686B24D030436863686B400838
:100F600040006863FFF750FB064622E0686B3043A1
:100F70006863686B38436863FFF746FB064604E026
:100F8000FFF742FB801B64285BD8686B8007F7D5AE
:100F9000686BF8218843A169C900084368630BE0C6
:100FA0004FE0B0436863F3E7FFF72EFB801B642834
:100FB00047D8686B8007F7D4606A002846D0696814
:100FC0000907890F022943D001263606022828681E
:100FD00005D0B0432860FFF717FB044633E0B04369
:100FE0002860FFF711FB074604E0FFF70DFBC01B6D
:100FF000642826D828688001F7D4E86A216B0009A4
:1010000000010843E862A16AE06A084369683D227A
:101010001204914308436860286830432860FFF752
:10102000F3FA044604E0FFF7EFFA001B642808D83F
:1010300028688001F7D509E0FFF7E6FA001B64286D
:1010400001D90320F8BD28688001F5D40020F8BD3F
:101050000120F8BD0010024000700040881300001D
:10106000042204490428086902D0904308617047AB
:101070001043FBE700E000E010B50E487D224188F8
:101080001201491C89B24180914212D30A4C216855
:101090008A69D243120403D48969C943C90508D4B3
:1010A0000021418000F020FD2068016808221143E2
:1010B000016010BD1400002064000020094910B533
:1010C000401E884201D9012010BD074C60610321F8
:1010D000081F00F075FD0020A0610720206100209E
:1010E00010BD0000FFFFFF0000E000E010B5FFF7BB
:1010F000C3FF10BD7047704770B5040005D025468A
:101100002035687E002802D006E0012070BD002056
:101110002876204600F00AF802206876211D206813
:1011200001F042F801206876002070BD08B5104A31
:101130000168104891420FD1C26981150A43C2610A
:10114000C06900220840009011461320FFF726FCDA
:101150001320FFF719FC08BD074A9142FBD18269B1
:10116000012149040A43826180690840009008BD5A
:10117000002000400010024000440140704770B55C
:101180000446006801690025C9438907002915DB69
:10119000C168C943890711D4E91E01610120207685
:1011A000206880698007204602D0FFF7E7FF04E04F
:1011B00000F096F8204600F094F825762068016942
:1011C000C943490717D4C168C943490713D4042147
:1011D000C943016102202076206880698005800F64
:1011E000204602D0FFF7CAFF04E000F079F820465D
:1011F00000F077F8257620680169C943090716D4FD
:10120000C168C943090712D40821C94301610420F8
:1012100020762068C0698007204602D0FFF7AEFF25
:1012200004E000F05DF8204600F05BF825762068C9
:101230000169C943C90617D4C168C943C90613D493
:101240001021C9430161082020762068C06980050B
:10125000800F204602D0FFF791FF04E000F040F835
:10126000204600F03EF8257620680169C943C90789
:1012700008D1C168C943C90704D1891E016120464C
:1012800000F030F820680169C943090609D4C16833
:10129000C943090605D48021C94301612046FFF7EF
:1012A00029FF20680169C943490609D4C168C943B7
:1012B000490605D44021C9430161204600F024F8C5
:1012C00020680169C943890609D4C168C9438906F0
:1012D00005D42021C94301612046FFF70CFF70BDF2
:1012E00070477047034910B5884202D102A001F04F
:1012F00033FA10BD1001002074696D313420697219
:101300007120696E0A000000704770477047F8B599
:1013100004460068C1692546C907012660350029D1
:1013200007D00168C90504D50662E06E3043E06667
:101330006E722068C16904228B070221002B07DA34
:101340008368DB0704D00162E06E1043E0666E72D2
:101350002068C3695B0707D58368DB0704D0026296
:10136000E06E0843E0666E722068C16908270907CD
:10137000002907DA8168C90704D00762E06E3843A4
:10138000E0666E72E06E002802D02046FFF7BEFFD6
:101390002068C169C90209D58168490206D50121C1
:1013A000090501626E722046FFF7AFFF2068C16930
:1013B000890609D50068800606D5204601F002F8A6
:1013C00020688169394381612068C169090605D5B2
:1013D0000068000602D5204601F0CEF82068C169F9
:1013E000490605D50068400602D5204600F0D2FF28
:1013F000F8BD70B5040005D025466035687A002830
:1014000002D006E0012070BD00202872204600F0C6
:1014100027F80220687220680168490849000160C5
:10142000204601F017F80128EDD0606A002802D0AC
:10143000204600F01BFF206841680922D202914338
:101440004160206881682A22914381602068016898
:10145000012211430160204600F06EFF70BD0000C4
:1014600030B50068174987B0884228D1164CA0696A
:101470000125AD032843A061A06901212840059002
:10148000032040020090022001900320039002916B
:10149000049109206946C006FFF706F8A0692843B1
:1014A000A061A06900222840059011461B20FFF78B
:1014B00075FA1B20FFF768FA04A001F04DF907B098
:1014C00030BD0000003801400010024065626162DA
:1014D0006C650A0070B5034660335C7A012C02D05B
:1014E0005C7A122C3CD1002914D0002A12D01C7A2C
:1014F000012C35D001241C724165014640310A831C
:101500004A8385682603FF22B54207D10569002D6D
:1015100002D009E0012070BD124A05E0002D04D17F
:101520000569002D00D07F228A830021C1665A7A86
:10153000122A13D022225A7202681568FF26013639
:1015400035431560026895682543956019720068F7
:101550000168202211430160002070BD3222EAE7B9
:10156000022070BDFF0100007047704770B5194838
:10157000026891690224C9430907002909DB08218F
:10158000D16101688A69D243D20316D40A68224322
:1015900012E09169C94389070FD410490E4D0B78A9
:1015A000ED5C95625B1CDAB20A70102A05D30C223E
:1015B0000A7001680A68A2430A60006880694005F1
:1015C000400F044802D0FFF755F870BDFFF78AF8C6
:1015D00070BD0000640000203400002014000020D2
:1015E000F8B5054604462035287D012814D0012190
:1015F0002975206882690026D2435207002A0DDB34
:10160000416A606A421C62620170208D401E208522
:10161000608D401E608560E00220F8BD8269D24383
:1016200013064022002B21DB218D00291AD1618D68
:10163000002917D040688105608D890DFF2800962C
:1016400006D99304FF22204600F068F9FF2007E046
:10165000608D0123C2B25B06204600F05FF9608D09
:1016600020853AE02E75A06B104332E08369DB439E
:101670005B0608D4618D0029F4D1416801229203F0
:101680001143416029E08269D243920617D402686F
:10169000F4239A43026022682020D06120684268C7
:1016A0000F4B1A40426069752E75687D622820468E
:1016B00002D0FFF7FBF810E0FFF7FAF80DE08169C0
:1016C000C943C90609D41021C1612E75A06B04213C
:1016D0000843A0632046FFF796F82E750020F8BD5A
:1016E00000E800FEF8B5054604462035287D0128AF
:1016F00014D001212975206882690026D2439207FF
:10170000002A0DDB616A4A1C626209788162208DC1
:10171000401E2085608D401E608560E00220F8BD7F
:101720008269D24313064022002B21DB218D002940
:101730001AD1618D002917D040688105608D890D0F
:10174000FF28009606D99304FF22204600F0E6F811
:10175000FF2007E0608D0123C2B25B06204600F047
:10176000DDF8608D20853AE02E75A06B104332E0E5
:101770008369DB435B0608D4618D0029F4D141689D
:10178000012292031143416029E08269D24392060B
:1017900017D40268F2239A43026022682020D061A5
:1017A000206842680F4B1A40426069752E75687D4B
:1017B0005228204602D0FFF77AF810E0FFF779F8B8
:1017C0000DE08169C943C90609D41021C1612E7594
:1017D000A06B04210843A0632046FFF714F82E7580
:1017E0000020F8BD00E800FE70B504462034217DDD
:1017F000012912D00122227501688B690025DB4383
:10180000DB06002B0BDB1022CA612575816B0422DD
:1018100011438163FEF7F7FF2DE0022070BD8B6955
:10182000DB431B0702D40820C86124E08B69DB433B
:101830005B070BD44A6A416A4B1C43620A70018DF4
:10184000491E0185418D491E418514E08B69DB43AA
:101850009B0610D40B68FC26B3430B6001684B68F1
:101860000126F60333434B6003682021D96162757A
:101870002575FFF74BF82575002070BD70B504463F
:101880002034217D012915D00122227501688B6940
:101890000025DB43DB06002B10DB438D1022002BE1
:1018A000CA6109D0816B0422114381632575FEF75B
:1018B000AAFF2FE0022070BD25752BE08B69DB436A
:1018C0001B0702D40820C86124E08B69DB439B0618
:1018D00011D40B68FE26B3430B6001684B680126E8
:1018E000F60333434B6003682021D9616275257587
:1018F000FFF70DF80EE08A69D24392070AD4428DB1
:10190000002A07D0426A531C436212788A62418DD2
:10191000491E41852575002070BD000070B5056821
:10192000049C68688905890D1204044E114319430B
:10193000304021430143696070BD0000009800FC05
:1019400070B510260924E4060546A6624020A06171
:10195000280A00F09BFBE8B200F098FBA66170BD7E
:1019600070B506467F2300211A46084600F026F887
:101970002C2000F059F8002400253046FFF7E0FF46
:101980006D1C802DF9D3641C802CF5D370BD10B56F
:10199000112000F049F87820FEF762FD362000F0B3
:1019A00043F8C82000F035F83A2000F03DF8052053
:1019B00000F02FF8292000F037F810BDF0B50746E9
:1019C0001C4615460E462A2000F02EF8002000F096
:1019D00020F8BF1CF8B200F01CF8002000F019F845
:1019E000AD1CE8B200F015F82B2000F01DF8002027
:1019F00000F00FF8F61CF0B200F00BF8002000F039
:101A000008F8E41CE0B200F004F82C2000F00CF818
:101A1000F0BD30B510250924E406A5624021A1617E
:101A200000F034FBA56130BD30B510250924E40673
:101A3000A5624021A16200F029FBA56130BD000034
:101A4000F0B5264887B04269012149040A43426142
:101A500042690A400592426949000A43426140696D
:101A600001250840009500240927FF0605900294EF
:101A70006946019503943846FEF716FDF0200326CB
:101A8000009069460396019502943846FEF70CFDD6
:101A900000961348134E0190694602943046FEF7B3
:101AA00003FD0B2000030090029469460195039406
:101AB0003046FEF7F9FCA8030090019469460294B1
:101AC0003046FEF7F1FC002211460520FEF766FFC6
:101AD0000520FEF759FF07B0F0BD000000100240DE
:101AE000000021100004004810B50C480A490160AC
:101AF0000B494160332181600121C16000210161F6
:101B000041618161C1610162FEF77EFE00210348EF
:101B1000FEF780FD10BD000000540040640000206E
:101B20000E09002010B50848064901607D210022F9
:101B3000090182604160C8210261C160FFF7DCFADF
:101B400010BD0000002000401001002010B5084822
:101B5000064901607D210901416000218160642204
:101B60000161C2604161FFF7C7FA10BD0044014046
:101B70004C01002010B5094807490160E1214902E4
:101B8000416000218160C16001610C22816142617C
:101B9000C161FFF72EFC10BD00380140A0000020FD
:101BA0000022064B06E00021491C89B29942FBD372
:101BB000521C92B28242F6D37047000010270000F8
:101BC0008307FF22DB0E9A408907090E99400028FF
:101BD0000BDA0007000F0838830808489B00181824
:101BE000C36993430B43C3617047830804489B0058
:101BF0001B181868904308431860704700ED00E018
:101C000000E400E010B503211420FEF75CFB10BDDA
:101C100010B5142000F0E2F9800703D1032114204D
:101C200000F048FA10BD70B50646082188B00024BF
:101C30000846FEF748FB00210D2000F033FD80210F
:101C40000E20FEF740FB932168460171202141716F
:101C500006A801AB0090022219460C2000F03FF8C4
:101C600005000DD1002101A8425C7254425C491C60
:101C70005440C9B20429F7D3405CA04200D0FE25ED
:101C800080210E2000F016FA284608B070BD30B54D
:101C900087B06C4620716171002001A9145C0D1899
:101CA000401CC0B2AC700628F8D300201A5C0C1897
:101CB000401CC0B222720428F8D306A800900B463C
:101CC0000C220E2000F00BF8040004D1082000F0D4
:101CD00085F9000700D4FE24204607B030BDFFB5CB
:101CE00081B000250198FE26174600950C2804D0E7
:101CF0000E2805D11225102001E077253020009014
:101D0000294680200143022000F0CCFC80210420E1
:101D1000FEF7D9FA0021012000F0C4FC80210A203E
:101D200000F0C8F9002405E00298015D092000F0E8
:101D3000B9FC641CBC42F7D30120019900F0B2FC4D
:101D400001980C2803D180210D2000F0B3F9FF2762
:101D5000F537042000F042F904467F1E04D0E00766
:101D600002D100980442F4D080210D20FEF7ABFA96
:101D7000012C0FD0062000F031F91B21084208D1B8
:101D800000262C40E00700D0FF2601980C280CD03C
:101D900000E0FE2680210C2000F08CF900210120BB
:101DA00000F080FC304605B0F0BD0A2000F016F9C6
:101DB00004460C2000F012F94007400F03D0E10068
:101DC0000839091800E0E1000A98002C016004D0ED
:101DD000122C04D91224002503E00124FBE700257E
:101DE00005E0092000F0FAF8049948556D1CA54259
:101DF000F7D3CFE730B587B00D46302269460A7178
:101E0000487101AC02212046A21CFEF72BFA06A85D
:101E100001AB0090042219460C20FFF760FF002858
:101E200002D10699902902D0FE2007B030BD0023D0
:101E3000E15CE9545B1CDBB2102BF9D3F5E730B55C
:101E40000C460546082187B00846FEF73CFA0721F4
:101E50000D2000F027FC0321142000F02BF9684628
:101E6000057106A801AB0090012219460C20FFF76E
:101E700036FF002803D10699102902D0FE2007B0B2
:101E800030BD694609792170694649796170F6E784
:101E900010B50F21012000F005FC0920401EFDD2E5
:101EA0003D21112000F0FEFB0820401EFDD21E2126
:101EB0002D2000F0F7FB00212C2000F0F3FB8D21FA
:101EC0002A2000F0EFFB3E212B2000F0EBFB40210D
:101ED000152000F0E7FB002010BD10B588B093225C
:101EE00069460A7170224A7100228A72114601AA5B
:101EF000435C5418A3706C46A37A445C491C63404D
:101F00006C46C9B2A3720429F2D3072101A8D21DDD
:101F1000FEF7A8F908210846FEF7D5F906A801AB97
:101F20000090092219460C20FFF7D9FE002802D1A3
:101F30000699182900D0FE2008B010BD70B5FFF733
:101F4000A7FFFFF75FFEFFF763FE1C495220FFF774
:101F500076FF002830D11A48FFF765FE00282BD104
:101F60001748FFF7BAFF002826D11649FF220A5466
:101F7000401C0628FBDB144C00212170104B114A39
:101F80006020FFF784FE002816D110210F48FEF7CD
:101F9000DBF80E492078FFF72DFF0C4D0024295D5A
:101FA0000BA000F0D9FB641CE4B2022CF7D30AA00A
:101FB00000F0D2FB00F03EF970BD00001C000020D4
:101FC00018000020210000201E00002052000020E8
:101FD00025303278200000000A000000F8B52A4CB5
:101FE000054600260121324649032046FEF705FB3F
:101FF0000121002209032046FEF7FFFAA806450E3C
:1020000008278035280601D5012200E000220121A1
:10201000C9032046FEF7F1FA012251032046FEF7DC
:10202000ECFA6806050E0121002249032046FEF75E
:10203000E4FA7F1E3F063F0EE4D10825AF020122DD
:1020400039462046FEF7D9FA7006060E01218903AB
:102050002046FEF7CDFA0643002239462046FEF719
:10206000CCFA6D1E2D062D0EE9D10122110320465A
:10207000FEF7C3FA012239462046FEF7BEFA0820D1
:10208000401EFDD23046F8BD0004004830B509239B
:1020900008218024DB062022050601D59C6100E092
:1020A0009C629A619A624006491E000E0906090E5A
:1020B000F2D130BD70B50D460446FFF78FFF2843BF
:1020C0000146204600F0EEFA70BD10B5FEF720FC88
:1020D000FFF70CF810BD70B596B0022510200995D9
:1020E000049005200024C004012600950B9003965F
:1020F0000A940C946846FEF7EFFD0F9401210DA899
:102100000D960E951094FEF7B9FC212011901394B2
:10211000149411A8FEF746FCFEF77EFD7D21C90050
:10212000FDF7E4FFFEF7CAFF0420FEF799FF002247
:102130001146501EFEF732FC16B070BD1348016800
:102140000122114301604168114A11404160016858
:10215000104A11400160016801229204914301601C
:1021600041683F22120491434160C16A0909090193
:10217000C162016BFF22543291430163416B4908F4
:102180004900416300218160704700000010024057
:102190000CB8FFF8FFFFF6FE10B50248FEF7EFFFA0
:1021A00010BD000010010020F0B502681B4B012497
:1021B000A4071B4D984203D0A04201D0A84203D1EE
:1021C0007026B2434E683243164E174F98420DD0D8
:1021D000A0420BD0A84209D0144CA04206D0B04275
:1021E00004D0B84202D0124CA04204D103242402ED
:1021F000A243CC68224302608A68C2620A68826293
:10220000984206D0B04204D0B84202D0084A904268
:1022100001D10969016301214161F0BD002C014038
:102220000004004000400140004401400020004004
:102230000048014030B501250924E406A5621920B3
:10224000FFF7AEFCA56130BD30B501250924E406D9
:10225000A5621920FFF7A4FCA5612320FFF7A0FCCD
:10226000A5621920FFF79CFCA56130BD10B5818CDB
:10227000C90707D001684A6801235B049A43836A4F
:102280001A434A60818C890707D501684A6801238F
:102290001B049A43C36A1A434A60818C490707D5D5
:1022A00001684A6801239B049A43036B1A434A60FE
:1022B000818C090707D501684A680123DB039A432B
:1022C000436B1A434A60818CC90607D5026891683E
:1022D00001231B039943836B19439160818C890609
:1022E00007D501688A6801235B039A43C36B1A43CD
:1022F0008A60818C490612D503685A680121090554
:10230000046C8A4322435A60026C8A4207D10268F5
:10231000516803235B059943436C19435160818CD9
:10232000090607D501684A680123DB04806C9A43DB
:1023300002434A6010BD000070B500250446C56622
:102340000068124988421BD10068114E000708D569
:102350000121334600224905204600F044F90028B7
:102360000CD12068006840070AD5012133460022BD
:102370008905204600F037F9002801D0032070BD00
:102380000120603460722572002070BD0038014069
:10239000E803000010B501680A6840239A430A6008
:1023A000014660314A7A322A0AD0026893685B0893
:1023B0005B00936001224A72FFF7D7F8002010BD3E
:1023C0002222F8E770B501464031034660338A8B1C
:1023D0005C7A222C04D05C7A322C01D0022070BDB1
:1023E000012584682D03AC4202D10469002C0DD074
:1023F0000468A48C1440426D551C456514704A8BCA
:10240000521E1204120C4A8309D01EE00568446D66
:10241000AD8C15402580426D921C4265EFE7016846
:102420000A682024A2430A60597A32290FD0016831
:102430000A68E400A2430A6001688A6852085200F0
:102440008A6001215972FFF78FF8002070BD1221B8
:10245000F8E70000F8B504462369A268E5691A4365
:10246000636910202B43002125681A432B680E4610
:102470003B4F3B4013432B6023685A6803252D03D1
:10248000AA43E5682A435A60236AA26925681A4369
:10249000AB680B273F02BB431343AB60314A25684F
:1024A000954210D1304A126B9207920F0ED0012A3A
:1024B00005D0022A05D0032A09D1022007E0042012
:1024C00005E0082003E0294A954200D100200122BE
:1024D000E369D203934220D100280CD002280DD00A
:1024E000042811D0082814D001260A09120108076F
:1024F000400F10432BE0FEF7A3FB07E01C48616888
:10250000FDF7F4FD81B2F0E7FEF7AAFB4000616839
:10251000F6E7012000046168F2E7002808D00228ED
:1025200009D004280DD0082814D001263046F8BD63
:10253000FEF786FB07E00F486168FDF7D7FD80B224
:102540000CE0FEF78DFB6168FDF7D0FD80B22168DD
:10255000C860EBE710466168FDF7C8FDE860E5E795
:10256000F369FFFF003801400010024000440040C2
:102570000024F40000127A00014660314A7A122ADF
:1025800004D0497A322901D00220704701464031F7
:102590004A8A002A12D0012382681B039A4202D180
:1025A0000269002A15D0C26C531CC36400681278FB
:1025B0000285488A401E48820020704701680A68E8
:1025C00080239A430A600068016840221143016039
:1025D000F2E7C26C03681288D205D20D1A85C26C6C
:1025E000921CC264E5E7F8B51D4616460F46044640
:1025F000FEF70AF83146264660360090002916D0CC
:1026000041E0681C13D0002D06D0FDF7FDFF014608
:102610000098081AA8420AD92068016880229143CC
:102620000160206801682022914301601AE020685F
:10263000C16938468843E4D12AE0681C23D0002DC4
:1026400006D0FDF7E1FF01460098081AA8421AD902
:10265000206801688022914301602068026820217F
:102660008A43026020680168FF22013291430160C1
:10267000206881684908490081600120707200204B
:1026800030720320F8BD2068C16938468843D4D031
:102690000020F8BD10B50248FEF739FE10BD00005D
:1026A000A0000020F8B50E462A4C05460121002264
:1026B00049032046FDF7A1FF01210022090320461E
:1026C000FDF79BFFA806470E0825380601D5012215
:1026D00000E000220121C9032046FDF78EFF012200
:1026E00051032046FDF789FF7806070E01210022DD
:1026F00049032046FDF781FF6D1E2D062D0EE4D106
:102700000825AF02300601D5012200E00022012198
:10271000C9032046FDF771FF012239462046FDF727
:102720006CFF7006060E002239462046FDF765FF55
:102730006D1E2D062D0EE5D1012211032046FDF759
:102740005CFF012239462046FDF757FF0820401E56
:10275000FDD2F8BD000400480FB410B503A9044B26
:10276000044A029800F018F810BC08BC04B01847DE
:10277000152C00083000002002E008C8121F08C114
:10278000002AFAD170477047002001E001C1121FF2
:10279000002AFBD170470000FFB591B00F460546F7
:1027A000002606E025280AD0149A139990476D1C3C
:1027B000761C28780028F5D1304615B0F0BD0024ED
:1027C00000940121F34A029400E004436D1C2B782D
:1027D0000846203B98401042F7D128782A280ED08E
:1027E000022128780246303A092A15D8009A0A238D
:1027F0005A43303A80180C436D1C0090F1E701CF2A
:102800000090002805DA012040030443009840426C
:102810000090022004436D1C28782E2815D1042036
:10282000044368786D1C2A280AD101CF6D1C0290E0
:102830000BE002990A225143303940186D1C029076
:102840002878014630390929F3D928786C2810D026
:1028500006DC4C281AD068280ED06A2817D104E06C
:10286000742813D07A2812D110E0012040050443C7
:102870000CE00121090501E0032109050C436978F9
:10288000814203D10120000524186D1C6D1C28789D
:1028900003906E281ED00CDC632831D004DC0028A5
:1028A0008AD0582811D1B2E064287BD069280CD195
:1028B00078E073282DD004DC6F2870D0702804D104
:1028C000A7E075286CD078286BD0149A139990479C
:1028D000761C62E06002400F022807D003280AD06D
:1028E000042838680AD006603F1D56E03868F117A2
:1028F00006604160F8E738680680F5E70670F3E7A0
:102900003878694608740020487404A803900120B0
:1029100003E0386803900020C0433F1D61070FD5D6
:10292000002101E00199491C029A0191914213DAB8
:102930008142F7DB019A0399895C0029F2D10BE00F
:10294000002101E00199491C01918142FADB019AC1
:102950000399895C0029F5D101990098139A401ACE
:1029600000902146149B00F03BF90199801946180C
:1029700007E0039803990078491C0391149A13996E
:1029800090470198401E0190401CF2D12146149BB3
:10299000139A009800F014F986196D1C09E741E0BC
:1029A00033E034E00A200021049005916002410FD9
:1029B000022905D001CFC2179446032905D007E0AC
:1029C000FF1DFF08FF0003CF06E000B2C2179446C8
:1029D000042902D140B2C1178C46002261469445B9
:1029E00006DA0A460021404291418C462D2102E040
:1029F000210504D52B216A461176012103E0E10768
:102A000001D02021F7E7019154E00A200BE01020CB
:102A100009E01020049000210420044308200591BF
:102A2000029003E008200021059104906002410F0C
:102A3000022905D001CF00229446032906D006E0E2
:102A4000FF1DFF08FF0003CF8C4603E080B204297E
:102A500000D1C0B20021019121072BD50399702923
:102A600006D0049A1021059B4A401A4305D00EE077
:102A700040216A461176012108E06146014306D0F3
:102A800030216A4611760399517602210191049A08
:102A90000821059B4A401A430CD16146014301D1EC
:102AA000610707D530216A4611760121019102990B
:102AB000491E02910399582904D037A103910FA907
:102AC0000F910DE039A1F9E76146059B049AFDF7E6
:102AD00046FB039B8C469B5C0F9A521E0F92137011
:102AE00061460143F0D10F9807A9081A20300390DE
:102AF000600704D5012000048443029801E001200E
:102B000002900399884201DD401A00E0002041183C
:102B10000290019809180098401A0090E00306D42A
:102B20002146149B139A009800F05AF88619002049
:102B3000049008E006A9085C149A13999047049839
:102B4000401C761C049001998842F3DBE0030CD50D
:102B50002146149B139A009800F042F8861904E06D
:102B6000149A302013999047761C0299481E0290BF
:102B70000029F5DC08E00F980F990078491C0F91A7
:102B8000149A13999047761C0399481E03900029C4
:102B9000F1DCFBE6092801003031323334353637B9
:102BA0003839616263646566000000003031323399
:102BB0003435363738394142434445460000000039
:102BC000F8B5044600251E461746880404D405E0DF
:102BD00039462020B0476D1C641EF9D52846F8BD43
:102BE000FFB50446002581B01E46C80301D5302735
:102BF00000E02027880404D505E038460399B04753
:102C00006D1C641EF9D5284605B0F0BD401EFDD2EE
:102C1000704700000449CA695206FCD5024AC1B295
:102C200020321181704700000038014010B5FDF7D7
:102C300077FEFFF750FAFEF703FFFEF755FFFEF7AA
:102C400071FFFEF783FFFEF795FF01220920114671
:102C5000C006FDF7D2FCFDF7D5FA0B480068016805
:102C60000822114301600948FFF7D0FF01220849FB
:102C70000848FEF72FFC06490020491E0870FFF7A0
:102C80005DF9002010BD000064000020E8FD000098
:102C90001F000020A000002070B50546002122235F
:102CA0007F220846FEF78AFE00242326F6016000F4
:102CB000295C4019407800020843FEF741FE641C7D
:102CC000B442F4DB70BD0000000000000000000012
:102CD0000000000000000010101010101010101064
:102CE00000001010000000006C6C242400000000A4
:102CF0000100000000000024242424FE4848484825
:102D0000FC909090900000103C5492905038141217
:102D10001292547810000000225C94A848101024ED
:102D20002A5254880000000030484850206E5494C5
:102D30008C888A7400000000303010100000000001
:102D400000000000000000040810102020202020B7
:102D500020101008040000804020201010101010D7
:102D6000102020408000000000001054381038541B
:102D700010000000000000000010101010FE1010E5
:102D80001010000000000000000000000000000023
:102D900000001010200000000000000000FE0000F5
:102DA0000000000000000000000000000000000023
:102DB000000010100000000004040808101020207B
:102DC00040408080000000003844828282828282FB
:102DD0008282443800000000107010101010101093
:102DE0001010107C0000000038448282040810207B
:102DF000408284FC0000000038448202043804024F
:102E00000282443800000000040C141424244444BA
:102E1000FE04040E00000000FC808080B8C4820222
:102E200002828478000000003C428280B8C4828222
:102E300082824438000000007E42820404080808B0
:102E40001010101000000000384482824438448280
:102E50008282443800000000384482828282463AEE
:102E60000282443800000000000010100000000042
:102E70001010000000000000000010100000000012
:102E8000001010200000000000000618608060188C
:102E9000060000000000000000000000FE0000FE30
:102EA00000000000000000000000C0300C020C30E8
:102EB000C0000000000000384482820204081010A4
:102EC00010001010000000003844829AAAAAAAAA92
:102ED000AA9680423C000000101010282828444484
:102EE0007C4444EE00000000FC424242427C4242EC
:102EF000424242FC000000003C448280808080808E
:102F00008282443800000000F84442424242424279
:102F1000424244F800000000FC444240447C4440EB
:102F2000404244FC00000000FC444240447C4440D9
:102F3000404040F000000000344C828080808E844D
:102F400084844C3400000000EE444444447C4444F7
:102F5000444444EE000000007C10101010101010CB
:102F60001010107C000000003E080808080808083F
:102F70000888887000000000EE44484850605048BF
:102F8000484444EE00000000E040404040404040E3
:102F9000404244FC00000000C6446C6C6C54545425
:102FA000444444EE00000000CE4464646454544C35
:102FB0004C4C44E4000000003844828282828282C9
:102FC0008282443800000000F84442424244784083
:102FD000404040E0000000003844828282828282C9
:102FE00082BA443C02000000F0484444444870481F
:102FF000444444E6000000003C44828040300C021F
:1030000002824478000000007C54921010101010CE
:103010001010103800000000EE444444444444447E
:103020004444443800000000EE4444444428282826
:103030002810101000000000EE445454545454540E
:103040002828282800000000EE44442828101028D2
:10305000284444EE00000000EE44442828281010C4
:1030600010101038000000007E4484080810202052
:10307000408284FC0000001C101010101010101072
:10308000101010101C000000EE445454FE54545410
:1030900028282828000000701010101010101010A0
:1030A0001010101070000030488400000000000074
:1030B0000000000000000000000000000000000010
:1030C00000000000FE0000402000000000000000A2
:1030D0000000000000000000000000007884047C74
:1030E00084848C7600000000C04040405864424216
:1030F0004242645800000000000000003844808014
:1031000080804438000000000C040404344C8484A3
:1031100084844C360000000000000000788484FCA9
:10312000808084780000000018242020F8202020CF
:103130002020207000000000000000003A44447885
:10314000807C82827C000000C0404040586444443F
:10315000444444EE00000000101000003010101035
:103160001010103800000000101000003010101077
:103170001010109060000000C04040405C4850605B
:10318000504844EE000000003010101010111010D4
:10319000101010390000000000000000ACD2929224
:1031A000929292D6000000000000000058E44444CF
:1031B000444444EE000000000000000038448282D5
:1031C000828244380000000000000000D8644242BF
:1031D00042645840E000000000000000364C848447
:1031E000844C34040E000000000000006C302020ED
:1031F000202020700000000000000000788884601B
:10320000188444780000000000202020F8202020AE
:10321000202024180000000000000000C6424242A6
:103220004242463A0000000000000000EE444428FC
:10323000282810100000000000000000EE44445454
:10324000542828280000000000000000EE44281048
:10325000102844EE0000000000000000EE44442866
:10326000281010A0C0000000000000007E4488105C
:10327000204284FC0000000C101010101060101090
:10328000101010100C000010101010101010101062
:1032900010101010100000C0202020202018202026
:1032A00020202020C00000000000000000728C00E0
:1032B00000000000000000D2BA0080404027F81152
:1032C0004001408278424816A81AD023502220425A
:1032D000204250028800000000BEA73FE020203FAF
:1032E000E020203FE00000FDF885088508FDF88516
:1032F000088508FDF8850800000000B2E200084FCC
:103300008828880AA88AA84AA80AA82AA82AA84217
:1033100028450884888888103800000000CAD440F6
:1033200050204820400FF80040E040274022402233
:103330004022202A2833A82E18000800000000B3DD
:10334000CC00001BF0E210221023F0F80020003324
:10335000F068806080A3F02080208027F8000000C3
:1033600000D0F2020001003FF820002FF0202022C0
:103370004021803FF820882090408040808380005A
:10338000000000D1D5200010F87E20444028F87EAF
:103390008848A850A864A848A872A88450188861D2
:1033A0000800000000C9AB100010003FE040408062
:1033B000807FF04210421042107FF04000400840F1
:1033C000083FF800000000CCEE20802FF820802776
:1033D000F0F41027F0241027F0241027F03410CF39
:1033E000F80220041000000000B3E404000200FF13
:1033F000F80800104020207FF0089008800880081E
:103400008010882088C07800000000CEC40400022C
:10341000000200FFF81040104008800880050002FC
:1034200000050008803060C01800000000D7D604F6
:10343000000200FFF8800880083FC0008001000201
:1034400000FFF80200020002000E0000000000CFA2
:10345000D43FE0202020203FE0202020203FE00833
:10346000804890289028A008800880FFF80000007D
:1034700000CABE00003FE0000000000000FFF802AC
:10348000001240122022104208820802000E0000A2
:10349000000000CDBC7FF84008440847C8484854A5
:1034A0008843084CC8733840884C08430840887FDC
:1034B000F800000000C6AC00802080208020803F03
:1034C000F02000200020003FC0204020402040404D
:1034D00040804000000000000000000000000000EC
:1034E00000000000000000000000000000000000DC
:1034F000000000000000000000FFFFFFFFFFFFFFD3
:10350000FFFFFFFFFFFFFFFFFFFFFFFFFFFFFFFFCB
:10351000FFFFFFFFFFFFFFFFFFFFFFFFFFFFFFFFBB
:10352000FFFFFFFFFFFFFFFFFFFFFFFFFFFFFFFFAB
:10353000FFFFFFFFFFFFFFFFFFFFFFFFFFFFFFFF9B
:10371000FF18C6FFFF18C6FFFFFFFFFFFFFFFFFFF9
:10372000FFFFFFFFFFFFFFFFFFFFFFFFFF18C6FFC9
:10373000FF18C618C618C6FFFFFFFFFFFFFFFFFFF9
:10374000FFFFFFFFFFFFFFFFFF18C618C618C618D0
:10375000C618C6FFFFFFFFFFFFFFFFFFFFFFFFFFD2
:10376000FFFFFFFFFFFFFFFFFF108410841084188E
:10377000C6FFFFFFFFFFFFFFFFFFFFFFFFFFFFFF92
:10378000FFFFFFFFFFFFFFFFFFFFFFFFFFFFFFFF49
:10379000FFFFFFFFFFFFFFFFFFFFFFFFFFFFFFFF39
:1037A000FFFFFFFFFFFFFFFFFFFFFFFFFFFFFFFF29
:1037B000FFFFFFFFFFFFFFFFFFFFFFFFFFFFFFFF19
:1037C000FFFFFFFFFFFFFFFFFFFFFFFFFFFFFFFF09
:1037D000FFFFFFFFFFFFFFFFFFFFFFFFFFFFFFFFF9
:1037E000FFFFFFFFFFFFFFFFFFFFFFFFFFFFFFFFE9
:1037F000FFFFFFFFFFFFFFFFFFFFFFFFFFFFFFFFD9
:10380000FFFFFFFFFFFFFFFFFFFFFFFFFFFFFF10B7
:1038100084000018C600001084FFFFFFFFFFFFFFB9
:10382000FFFFFFFFFFFFFFFFFFFFFFFFFF10840011
:1038300000000000001084FFFFFFFFFFFFFFFFFFFD
:10384000FFFFFFFFFFFFFFFFFFFFFF108418C618F9
:10385000C618C6FFFFFFFFFFFFFFFFFFFFFFFFFFD1
:10386000FFFFFFFFFFFFFF10841084008410841807
:10387000C6FFFFFFFFFFFFFFFFFFFFFFFFFFFFFF91
:10388000FFFFFFFFFFFFFFFFFFFFFFFFFFFFFFFF48
:10389000FFFFFFFFFFFFFFFFFFFFFFFFFFFFFFFF38
:1038A000FFFFFFFFFFFFFFFFFFFFFFFFFFFFFFFF28
:1038B000FFFFFFFFFFFFFFFFFFFFFFFFFFFFFFFF18
:1038C000FFFFFFFFFFFFFFFFFFFFFFFFFFFFFFFF08
:1038D000FFFFFFFFFFFFFFFFFFFFFFFFFFFFFFFFF8
:1038E000FFFFFFFFFFFFFFFFFFFFFFFFFFFFFFFFE8
:1038F000FFFFFFFFFFFFFFFFFFFFFFFFFFFFFFFFD8
:10390000FFFFFFFFFFFFFFFFFFFFFFFFFFFFFF10B6
:10391000841084000010841084FFFFFFFFFFFFFF6E
:10392000FFFFFFFFFFFFFFFFFFFFFF10841084007A
:1039300080000000001084FFFFFFFFFFFFFFFFFF7C
:10394000FFFFFFFFFFFFFFFFFF1084108400000058
:103950000018C6FFFFFFFFFFFFFFFFFFFFFFFFFF96
:10396000FFFFFFFFFFFFFF0084108418C60000FF69
:10397000FFFFFFFFFFFFFFFFFFFFFFFFFFFFFFFF57
:10398000FFFFFFFFFFFFFFFFFFFFFFFFFFFFFFFF47
:10399000FFFFFFFFFFFFFFFFFFFFFFFFFFFFFFFF37
:1039A000FFFFFFFFFFFFFFFFFFFFFFFFFFFFFFFF27
:1039B000FFFFFFFFFFFFFFFFFFFFFFFFFFFFFFFF17
:1039C000FFFFFFFFFFFFFFFFFFFFFFFFFFFFFFFF07
:1039D000FFFFFFFFFFFFFFFFFFFFFFFFFFFFFFFFF7
:1039E000FFFFFFFFFFFFFFFFFFFFFFFFFF10841040
:1039F0008418C6FFFFFFFFFFFFFFFFFFFFFFFFFF72
:103A0000FFFFFFFFFFFFFFFFFFFFFFFFFF18C610D5
:103A1000841084000000001084FFFFFFFFFFFFFF01
:103A2000FFFFFFFFFFFFFFFFFFFFFF108410840079
:103A30000000000000FFFFFFFFFFFFFFFFFFFFFF91
:103A4000FFFFFFFFFFFFFFFFFF108418C610841069
:103A50008418C6FFFFFFFFFFFFFFFFFFFFFFFFFF11
:103A6000FFFFFFFFFFFFFF10840000008418C6FF68
:103A7000FFFFFFFFFFFFFFFFFFFFFFFFFFFFFFFF56
:103A8000FFFFFFFFFFFFFFFFFFFFFFFFFFFFFFFF46
:103A9000FFFFFFFFFFFFFFFFFFFFFFFFFFFFFFFF36
:103AA000FFFFFFFFFFFFFFFFFFFFFFFFFFFFFFFF26
:103AB000FFFFFFFFFFFFFFFFFFFFFFFFFFFFFFFF16
:103AC000FFFFFFFFFFFFFFFFFFFFFFFFFFFFFFFF06
:103AD000FFFFFFFFFFFFFFFFFFFFFFFFFFFFFFFFF6
:103AE000FFFFFFFFFFFFFFFFFFFFFFFFFF1084103F
:103AF00084FFFFFFFFFFFFFFFFFFFFFFFFFFFFFF51
:103B0000FFFFFFFFFFFFFFFFFFFFFFFFFF18C618CC
:103B1000C60084108418C6FFFFFFFFFFFFFFFFFFF2
:103B2000FFFFFFFFFFFFFFFFFF18C6108410841088
:103B30008410840000FFFFFFFFFFFFFFFFFFFFFF78
:103B4000FFFFFFFFFFFFFF10840000000018C6000A
:103B5000001084FFFFFFFFFFFFFFFFFFFFFFFFFFDE
:103B6000FFFFFFFFFF18C610841084108410841814
:103B7000C6FFFFFFFFFFFFFFFFFFFFFFFFFFFFFF8E
:103B8000FFFFFFFFFFFFFFFFFFFFFFFFFFFFFFFF45
:103B9000FFFFFFFFFFFFFFFFFFFFFFFFFFFFFFFF35
:103BA000FFFFFFFFFFFFFFFFFFFFFFFFFFFFFFFF25
:103BB000FFFFFFFFFFFFFFFFFFFFFFFFFFFFFFFF15
:103BC000FFFFFFFFFFFFFFFFFFFFFFFFFFFFFFFF05
:103BD000FFFFFFFFFFFFFFFFFFFFFFFFFFFFFFFFF5
:103BE000FFFFFFFFFFFFFFFFFFFFFFFFFF1084103E
:103BF0008418C6FFFFFFFFFFFFFFFFFFFFFFFFFF70
:103C0000FFFFFFFFFFFFFFFFFFFFFFFFFFFFFFFFC4
:103C1000FF18C6FFFFFFFFFFFFFFFFFFFFFFFFFFD4
:103C2000FFFFFFFFFFFFFFFFFFFFFFFFFF18C6FFC4
:103C3000FF18C618C6FFFFFFFFFFFFFFFFFFFFFFD4
:103C4000FFFFFFFFFFFFFFFFFFFFFF18C618C618AB
:103C5000C6FFFFFFFFFFFFFFFFFFFFFFFFFFFFFFAD
:103C6000FFFFFFFFFF18C6FFFFFFFF18C618C6FFC4
:103C7000FFFFFFFFFFFFFFFFFFFFFFFFFFFFFFFF54
:103C8000FFFFFFFFFFFFFFFFFFFFFFFFFFFFFFFF44
:103C9000FFFFFFFFFFFFFFFFFFFFFFFFFFFFFFFF34
:103CA000FFFFFFFFFFFFFFFFFFFFFFFFFFFFFFFF24
:103CB000FFFFFFFFFFFFFFFFFFFFFFFFFFFFFFFF14
:103CC000FFFFFFFFFFFFFFFFFFFFFFFFFFFFFFFF04
:103CD000FFFFFFFFFFFFFFFFFFFFFFFFFFFFFFFFF4
:103CE000FFFFFFFFFFFFFFFFFFFFFFFFFFFFFFFFE4
:103CF000FFFFFFFFFFFFFFFFFFFFFFFFFFFFFFFFD4
:103D0000FFFFFFFFFFFFFFFFFFFFFFFFFFFFFFFFC3
:103D1000FFFFFFFFFFFFFFFFFFFFFFFFFFFFFFFFB3
:103D2000FFFFFFFFFFFFFFFFFFFFFFFFFFFFFFFFA3
:103D3000FFFFFFFFFFFFFFFFFFFFFFFFFFFFFFFF93
:103D4000FFFFFFFFFFFFFFFFFFFFFFFFFFFFFFFF83
:103D5000FFFFFFFFFFFFFFFFFFFFFFFFFFFFFFFF73
:103D6000FFFFFFFFFFFFFFFFFFFFFFFFFFFFFFFF63
:103D7000FFFFFFFFFFFFFFFFFFFFFFFFFFFFFFFF53
:103D8000FFFFFFFFFFFFFFFFFFFFFFFFFFFFFFFF43
:103D9000FFFFFFFFFFFFFFFFFFFFFFFFFFFFFFFF33
:103DA000FFFFFFFFFFFFFFFFFFFFFFFFFFFFFFFF23
:103DB000FFFFFFFFFFFFFFFFFFFFFFFFFFFFFFFF13
:103DC000FFFFFFFFFFFFFFFFFFFFFFFFFFFFFFFF03
:103DD000FFFFFFFFFFFFFFFFFFFFFFFFFFFFFFFFF3
:103DE000FFFFFFFFFFFFFFFFFFFFFFFFFFFFFFFFE3
:103DF000FFFFFFFFFFFFFFFFFFFFFFFFFFFFFFFFD3
:103E0000FFFFFFFFFFFFFFFFFFFFFF108410841085
:103E10008410841084108410841084108410841002
:103E200084108410841084108410841084108410F2
:103E300084108410841084108410841084108410E2
:103E400084108410841084108410841084108410D2
:103E500084108410841084108410841084108410C2
:103E6000841084108410841084108418C6FFFFFF0F
:103E7000FFFFFFFFFFFFFFFFFFFFFFFFFFFFFFFF52
:103E8000FFFFFFFFFFFFFFFFFFFFFFFFFFFFFFFF42
:103E9000FFFFFFFFFFFFFFFFFFFFFFFFFFFFFFFF32
:103EA000FFFFFFFFFFFFFFFFFFFFFFFFFFFFFFFF22
:103EB000FFFFFFFFFFFFFFFFFFFFFFFFFFFFFFFF12
:103EC000FFFFFFFFFFFFFFFFFFFFFFFFFFFFFFFF02
:103ED000FFFFFFFFFFFFFFFFFFFFFFFFFFFFFFFFF2
:103EE000FFFFFFFFFFFFFFFFFFFFFFFFFFFFFFFFE2
:103EF000FFFFFFFFFFFFFFFFFFFFFFFFFFFFFFFFD2
:103F0000FFFFFFFFFFFFFFFFFF18C600F800F800EC
:103F1000F800F800F800F800F800F800F800F800E1
:103F2000F800F800F800F800F800F800F800F800D1
:103F3000F800F800F800F800F800F800F800F800C1
:103F4000F800F800F800F800F800F800F800F800B1
:103F5000F800F800F800F800F800F800F800F800A1
:103F6000F800F800F800F800F81080FFFFFFFFFFEE
:103F7000FFFFFF18C618C618C618C618C618C618F8
:103F8000C618C618C618C618C618C618C618C61841
:103F9000C618C618C618C618C618C618C618C61831
:103FA000C618C618C618C618C618C618C618C61821
:103FB000C618C618C618C618C618C618C618C61811
:103FC000C618C618C618C618C618C618C618C61801
:103FD000C618C618C618C618C618C618C618C618F1
:103FE000C618C618C618C618C6FFFFFFFFFFFFFF9A
:103FF000FFFFFFFFFFFFFFFFFFFFFFFFFFFFFFFFD1
:10400000FFFFFFFFFFFFFFFFFF108400F800F80035
:10401000F800F800F800F800F800F810841080109C
:10402000801080108000F800F800F800F800F80018
:10403000F800F800F818C618C6108400F800F80058
:10404000F800F800F800F810841084108410841828
:10405000C618C618C61084108000F800F800F800D2
:10406000F800F800F800F800F8FFFFFFFFFFFFFF7F
:10407000FF18C618C618C618C618C618C618C61817
:10408000C618C618C618C618C618C618C618C61840
:10409000C618C618C6FFFFFFFF18C618C618C618F0
:1040A000C618C618C618C618C618C618C618C61820
:1040B000C618C618C618C618C618C618C618C61810
:1040C000C618C618C618C6FFFF18C618C618C618E0
:1040D000C618C618C618C618C618C618C6FFFF18D0
:1040E000C618C618C618C618C6FFFFFFFFFFFFFF99
:1040F000FFFFFFFFFFFFFFFFFFFFFFFFFFFFFFFFD0
:10410000FFFFFFFFFFFFFFFFFF008000F800F80048
:10411000F800F818C6FFFFFFFFFFFFFFFFFFFFFFDC
:10412000FFFFFFFFFFFFFF00F800F800F800F800B6
:10413000F800F818C6FFFFFFFF18C600F800F800E7
:10414000F800F800F8108418C6FFFFFFFFFFFF100B
:1041500084108418C6FFFFFFFFFFFF108400F800E3
:10416000F800F800F800F818C6FFFFFFFFFFFF187F
:10417000C618C618C618C618C6FFFFFFFFFFFFFF08
:10418000FFFFFFFFFF18C618C618C618C6FFFFFFBF
:10419000FFFFFFFFFF18C618C6FFFFFFFFFFFFFF6F
:1041A000FF18C618C6FFFFFFFFFFFFFFFFFFFFFF5F
:1041B000FF18C618C618C6FFFFFFFFFFFFFFFFFF6F
:1041C000FFFFFF18C618C6FFFFFFFFFFFFFFFFFF3F
:1041D000FFFFFFFFFFFFFFFFFFFFFFFFFFFFFF18D6
:1041E000C618C618C618C618C6FFFFFFFFFFFFFF98
:1041F000FFFFFFFFFFFFFFFFFFFFFFFFFFFFFFFFCF
:10420000FFFFFFFFFFFFFFFFFF00F800F800F800CF
:10421000F800F80080FFFFFFFF18C600F800F80064
:10422000F800F8108418C600F800F800F800F8004C
:10423000F800F8FFFFFFFFFFFFFFFF00F800F800A6
:10424000F800F800F800F800F8FFFFFFFFFFFF009C
:10425000F800F800F81080FFFFFFFFFFFF00F800F4
:10426000F800F800F800F8FFFFFFFFFFFFFFFF185E
:10427000C618C618C618C618C618C6FFFFFFFFFF27
:10428000FF18C618C618C618C618C6FFFFFFFFFFDE
:10429000FF18C618C618C618C618C6FFFFFFFFFFCE
:1042A000FF18C618C618C6FFFFFFFFFFFF18C61885
:1042B000C618C618C618C618C618C6FFFFFFFF18CE
:1042C000C618C618C6FFFF18C618C618C618C6FFF7
:1042D000FFFFFFFFFF18C618C618C618C6FFFF1855
:1042E000C618C618C618C6FFFFFFFFFFFFFFFFFF77
:1042F000FFFFFFFFFFFFFFFFFFFFFFFFFFFFFFFFCE
:10430000FFFFFFFFFFFFFF18C600F800F800F800EE
:10431000F800F800F8FFFFFFFF18C600F800F800EB
:10432000F800F800F800F800F800F800F800F800CD
:10433000F8FFFF1084FFFFFFFFFFFF008000F80081
:10434000F800F800F800F800F8FFFFFFFF18C600BB
:10435000F800F800F800F8FFFFFFFFFFFF00F8008B
:10436000F800F800F81080FFFFFFFFFFFF18C618E5
:10437000C618C618C618C618C618C6FFFFFFFFFF26
:10438000FF18C618C618C618C6FFFFFFFFFFFF18A4
:10439000C618C618C618C618C618C618C6FFFF180D
:1043A000C618C618C618C6FFFFFFFFFFFF18C618BD
:1043B000C618C618C618C618C6FFFFFFFFFFFF18AD
:1043C000C618C618C6FFFF18C618C618C618C6FFF6
:1043D000FFFFFFFFFF18C618C618C618C6FFFF1854
:1043E000C618C618C618C6FFFFFFFFFFFFFFFFFF76
:1043F000FFFFFFFFFFFFFFFFFFFFFFFFFFFFFFFFCD
:10440000FFFFFFFFFFFFFF108400F800F800F80037
:10441000F800F81084FFFFFFFF00F800F800F80034
:10442000F800F800F800F800F800F800F800F818B4
:10443000C6FFFF00F8FFFFFFFFFFFF008000F8004E
:10444000F800F800F800F81080FFFFFFFF1084006C
:10445000F800F800F800F8FFFFFFFF18C600F800AA
:10446000F800F800F818C6FFFFFFFFFFFF18C61896
:10447000C618C618C618C618C6FFFFFFFFFFFF18EC
:10448000C618C618C618C6FFFFFFFFFFFF18C618DC
:10449000C618C618C618C618C618C618C6FFFF180C
:1044A000C618C618C618C6FFFFFFFFFFFF18C618BC
:1044B000C618C618C618C618C6FFFFFFFFFFFF18AC
:1044C000C618C618C618C618C618C618C618C6FF15
:1044D000FFFFFFFFFF18C618C618C618C618C61873
:1044E000C618C618C618C6FFFFFFFFFFFFFFFFFF75
:1044F000FFFFFFFFFFFFFFFFFFFFFFFFFFFFFFFFCC
:10450000FFFFFFFFFFFFFF00F800F800F800F800D2
:10451000F800F818C6FFFFFFFF00F800F800F800E9
:10452000F818C600F800F800F800F800F800F8FFE6
:10453000FF108000F818C6FFFFFFFF00F800F8002A
:10454000F800F800F800F818C6FFFFFFFF00F800B9
:10455000F800F800F818C6FFFFFFFF108000F80011
:10456000F800F800F818C6FFFFFFFFFFFF18C61895
:10457000C618C618C618C618C6FFFFFFFFFFFF18EB
:10458000C618C618C6FFFFFFFFFFFF18C618C618DB
:10459000C618C618C618C618C618C618C618C6182B
:1045A000C618C618C618C6FFFFFFFF18C618C618DB
:1045B000C618C618C618C618C6FFFFFFFF18C618CB
:1045C000C618C618C618C618C618C618C6FFFFFFF4
:1045D000FFFFFF18C618C618C618C618C618C61892
:1045E000C618C618C618C6FFFFFFFFFFFFFFFFFF74
:1045F000FFFFFFFFFFFFFFFFFFFFFFFFFFFFFFFFCB
:10460000FFFFFFFFFFFFFF00F800F800F800F800D1
:10461000F800F8FFFFFFFFFFFF18C618C618C6FF17
:10462000FFFFFF00F800F800F800F800F818C618BF
:10463000C600F800F818C6FFFFFFFF108400F8005E
:10464000F800F800F800F8FFFFFFFFFFFF00F80098
:10465000F800F818C6FFFFFFFF00F800F800F800A8
:10466000F800F800F818C6FFFFFFFFFFFF18C61894
:10467000C618C618C618C618C6FFFFFFFFFFFF18EA
:10468000C618C618C6FFFFFFFFFFFF18C618C618DA
:10469000C618C618C618C618C618C618C618C6182A
:1046A000C618C618C6FFFFFFFFFFFFFFFFFFFFFF93
:1046B000FFFFFFFFFFFFFFFFFFFFFFFFFF18C61811
:1046C000C618C618C618C618C618C618C6FFFFFFF3
:1046D000FFFFFF18C618C618C618C618C618C61891
:1046E000C618C618C618C6FFFFFFFFFFFFFFFFFF73
:1046F000FFFFFFFFFFFFFFFFFFFFFFFFFFFFFFFFCA
:10470000FFFFFFFFFF18C600F800F800F800F800F0
:10471000F800F8FFFFFFFF18C6108418C6108418B1
:10472000C618C600F800F800F800F81084FFFF185B
:10473000C618C618C618C6FFFFFFFF108400F80091
:10474000F800F800F80080FFFFFFFFFFFFFFFFFF0A
:10475000FFFFFFFFFF108400F800F800F800F800EA
:10476000F800F800F818C6FFFFFFFFFFFF18C61893
:10477000C618C618C618C618C6FFFFFFFF18C61809
:10478000C618C618C6FFFFFFFFFFFF18C618C618D9
:10479000C618C6FFFFFFFFFFFFFFFFFFFFFFFFFF82
:1047A000FF18C618C6FFFFFFFFFFFF18C618C61880
:1047B000C618C618C618C6FFFFFFFFFFFF18C618A9
:1047C000C618C618C618C618C618C618C6FFFFFFF2
:1047D000FFFFFF18C618C618C618C618C618C61890
:1047E000C618C618C6FFFFFFFFFFFFFFFFFFFFFF52
:1047F000FFFFFFFFFFFFFFFFFFFFFFFFFFFFFFFFC9
:10480000FFFFFFFFFF108000F800F800F800F8003D
:10481000F81084FFFFFFFF00F800F800F800F81020
:1048200084108400F800F800F800F8FFFF18C6189C
:10483000C618C618C618C6FFFFFFFF18C600F80046
:10484000F800F800F81084FFFFFFFF108400F8184C
:10485000C6FFFFFFFFFFFF00F800F800F800F800B8
:10486000F800F800F818C6FFFFFFFFFFFF18C61892
:10487000C618C618C618C6FFFFFFFFFFFF18C618E8
:10488000C618C618C6FFFFFFFFFFFF18C618C618D8
:10489000C618C618C618C6FFFFFFFFFFFF18C618C8
:1048A000C618C618C6FFFFFFFFFFFF18C618C618B8
:1048B000C618C618C618C6FFFFFFFFFFFF18C618A8
:1048C000C618C618C618C618C618C618C6FFFFFFF1
:1048D000FF18C618C618C618C618C618C618C618AF
:1048E000C618C618C6FFFFFFFFFFFFFFFFFFFFFF51
:1048F000FFFFFFFFFFFFFFFFFFFFFFFFFFFFFFFFC8
:10490000FFFFFFFFFF00F800F800F800F800F800D4
:10491000F818C6FFFFFFFF008000F800F800F8005D
:10492000F800F800F800F800F818C618C600F800FB
:10493000F800F800F800F8FFFFFFFF18C600F800C5
:10494000F800F800F818C6FFFFFFFF00F800F800B5
:10495000F8FFFFFFFFFFFF108400F800F800F800E9
:10496000F800F800F818C6FFFFFFFFFFFF18C61891
:10497000C618C618C618C6FFFFFFFFFFFF18C618E7
:10498000C618C618C6FFFFFFFFFFFF18C618C618D7
:10499000C618C618C618C6FFFFFFFFFFFF18C618C7
:1049A000C618C618C6FFFFFFFF18C618C618C618D7
:1049B000C618C618C618C6FFFFFFFF18C618C618C7
:1049C000C618C618C618C618C618C6FFFFFFFFFFD0
:1049D000FF18C618C618C618C618C618C618C618AE
:1049E000C618C618C6FFFFFFFFFFFFFFFFFFFFFF50
:1049F000FFFFFFFFFFFFFFFFFFFFFFFFFFFFFFFFC7
:104A0000FFFFFF18C600F800F800F800F800F800F3
:104A1000F8FFFFFFFF18C600F800F800F800F800E4
:104A2000F800F800F800F81080FFFF00F800F80028
:104A3000F800F800F800F8FFFFFFFF18C600F800C4
:104A4000F800F800F8FFFFFFFF18C600F800F800B4
:104A5000F818C6FFFFFFFFFFFF00F800F800F8009E
:104A6000F800F800F818C6FFFFFFFFFFFF18C61890
:104A7000C618C618C618C6FFFFFFFFFFFF18C618E6
:104A8000C618C618C6FFFFFFFFFFFF18C618C618D6
:104A9000C618C618C618C6FFFFFFFF18C618C618E6
:104AA000C618C6FFFFFFFFFFFF18C618C618C618B6
:104AB000C618C618C6FFFFFFFFFFFF18C618C618A6
:104AC000C618C618C618C618C618C6FFFFFFFFFFCF
:104AD000FF18C618C618C618C618C618C618C618AD
:104AE000C618C6FFFFFFFFFFFFFFFFFFFFFFFFFF2F
:104AF000FFFFFFFFFFFFFFFFFFFFFFFFFFFFFFFFC6
:104B0000FFFFFF18C600F800F800F800F800F810E2
:104B100084FFFFFFFF108400F800F800F800F800A1
:104B2000F800F800F800F8FFFF18C600F800F800D9
:104B3000F800F800F800F8FFFFFFFFFFFF00F800A3
:104B4000F800F81080FFFFFFFF18C600F800F8001B
:104B5000F800F8FFFFFFFFFFFF18C600F800F8009D
:104B6000F800F800F818C6FFFFFFFFFFFF18C6188F
:104B7000C618C618C618C6FFFFFFFF18C618C61805
:104B8000C618C618C618C6FFFFFFFFFFFF18C618D5
:104B9000C618C618C6FFFFFFFFFFFF18C618C618C5
:104BA000C618C6FFFFFFFFFFFF18C618C618C618B5
:104BB000C618C618C6FFFFFFFFFFFF18C618C618A5
:104BC000C618C618C618C618C618C6FFFFFFFFFFCE
:104BD000FF18C618C618C618C618C618C618C618AC
:104BE000C618C6FFFFFFFFFFFFFFFFFFFFFFFFFF2E
:104BF000FFFFFFFFFFFFFFFFFFFFFFFFFFFFFFFFC5
:104C0000FFFFFF00F800F800F800F800F818C6FFF2
:104C1000FFFFFFFFFFFFFF18C600F800F800F800D5
:104C2000F800F818C6FFFFFFFFFFFF18C600F800E6
:104C3000F800F818C6FFFFFFFFFFFFFFFFFFFF10A0
:104C40008418C6FFFFFFFFFFFFFFFFFFFF10840078
:104C5000F800F81080FFFFFFFFFFFF18C610840068
:104C6000F800F800F8FFFFFFFFFFFFFFFF18C6186E
:104C7000C618C6FFFFFFFFFFFFFFFFFFFFFFFF1884
:104C8000C618C618C618C618C6FFFFFFFFFFFFFFED
:104C9000FFFFFFFFFFFFFFFFFF18C618C618C6FF84
:104CA000FFFFFFFFFFFFFFFFFFFFFF18C618C6183B
:104CB000C6FFFFFFFFFFFFFFFFFFFFFFFF18C61844
:104CC000C618C618C6FFFFFFFFFFFFFFFFFFFFFF6D
:104CD000FFFFFF18C618C618C618C618C618C6188B
:104CE000C618C6FFFFFFFFFFFFFFFFFFFFFFFFFF2D
:104CF000FFFFFFFFFFFFFFFFFFFFFFFFFFFFFFFFC4
:104D0000FFFFFF00F800F800F800F800F800F800D6
:104D1000F800F800F800F800F800F800F800F800D3
:104D2000F800F800F800F800F800F800F800F800C3
:104D3000F800F800F800F800F800F800F800F800B3
:104D4000F800F800F800F800F800F800F800F800A3
:104D5000F800F800F800F800F800F800F800F80093
:104D6000F800F81084FFFFFFFFFFFF18C618C618F1
:104D7000C618C618C618C618C618C618C618C61843
:104D8000C618C618C618C618C618C618C618C61833
:104D9000C618C618C618C618C618C618C618C61823
:104DA000C618C618C618C618C618C618C618C61813
:104DB000C618C618C618C618C618C618C618C61803
:104DC000C618C618C618C618C618C618C618C618F3
:104DD000C618C618C618C618C618C618C618C618E3
:104DE000C618C6FFFFFFFFFFFFFFFFFFFFFFFFFF2C
:104DF000FFFFFFFFFFFFFFFFFFFFFFFFFFFFFFFFC3
:104E0000FF18C600F800F800F800F800F800F800F5
:104E1000F800F800F800F800F800F800F800F800D2
:104E2000F800F800F800F800F800F800F800F800C2
:104E3000F800F800F800F800F800F800F800F800B2
:104E4000F800F800F800F800F800F800F800F800A2
:104E5000F800F800F800F800F800F800F800F80092
:104E6000F800F8FFFFFFFFFFFFFFFF18C618C61886
:104E7000C618C618C618C618C618C618C618C61842
:104E8000C618C618C618C618C618C618C618C61832
:104E9000C618C618C618C618C618C618C618C61822
:104EA000C618C618C618C618C618C618C618C61812
:104EB000C618C618C618C618C618C618C618C61802
:104EC000C618C618C618C618C618C618C618C618F2
:104ED000C618C618C618C618C618C618C618C618E2
:104EE000C6FFFFFFFFFFFFFFFFFFFFFFFFFFFFFF0B
:104EF000FFFFFFFFFFFFFFFFFFFFFFFFFFFFFFFFC2
:104F0000FF18C618C618C618C618C618C618C61878
:104F1000C618C618C618C618C618C618C618C618A1
:104F2000C618C618C618C618C618C618C618C61891
:104F3000C618C618C618C618C618C618C618C61881
:104F4000C618C618C618C618C618C618C618C61871
:104F5000C618C618C618C618C618C618C618C61069
:104F600084FFFFFFFFFFFFFFFFFFFFFFFFFFFFFFCC
:104F7000FFFFFFFFFFFFFFFFFFFFFFFFFFFFFFFF41
:104F8000FFFFFFFFFFFFFFFFFFFFFFFFFFFFFFFF31
:104F9000FFFFFFFFFFFFFFFFFFFFFFFFFFFFFFFF21
:104FA000FFFFFFFFFFFFFFFFFFFFFFFFFFFFFFFF11
:104FB000FFFFFFFFFFFFFFFFFFFFFFFFFFFFFFFF01
:104FC000FFFFFFFFFFFFFFFFFFFFFFFFFFFFFFFFF1
:104FD000FFFFFFFFFFFFFFFFFFFFFFFFFFFFFFFFE1
:104FE000FFFFFFFFFFFFFFFFFFFFFFFFFFFFFFFFD1
:104FF000FFFFFFFFFFFFFFFFFFFFFFFFFFFFFFFFC1
:10500000FFFFFFFFFFFFFFFFFFFFFFFFFFFFFFFFB0
:10501000FFFFFFFFFFFFFFFFFFFFFFFFFFFFFFFFA0
:10502000FFFFFFFFFFFFFFFFFFFFFFFFFFFFFFFF90
:10503000FFFFFFFFFFFFFFFFFFFFFFFFFFFFFFFF80
:10504000FFFFFFFFFFFFFFFFFFFFFFFFFFFFFFFF70
:10505000FFFFFFFFFFFFFFFFFFFFFFFFFFFFFFFF60
:10506000FFFFFFFFFFFFFFFFFFFFFFFFFFFFFFFF50
:10507000FFFFFFFFFFFFFFFFFFFFFFFFFFFFFFFF40
:10508000FFFFFFFFFFFFFFFFFFFFFFFFFFFFFFFF30
:10509000FFFFFFFFFFFFFFFFFFFFFFFFFFFFFFFF20
:1050A000FFFFFFFFFFFFFFFFFFFFFFFFFFFFFFFF10
:1050B000FFFFFFFFFFFFFFFFFFFFFFFFFFFFFFFF00
:1050C000FFFFFFFFFFFFFFFFFFFFFFFFFFFFFFFFF0
:1050D000FFFFFFFFFFFFFFFFFFFFFFFFFFFFFFFFE0
:1050E000FFFFFFFFFFFFFFFFFFFFFFFFFFFFFFFFD0
:1050F000FFFFFFFFFFFFFFFFFFFFFFFFFFFFFFFFC0
:10510000FFFFFFFFFFFFFFFFFFFFFFFFFFFFFFFFAF
:10511000FFFFFFFFFFFFFFFFFFFFFFFFFFFFFFFF9F
:10512000FFFFFFFFFFFFFFFFFFFFFFFFFFFFFFFF8F
:10513000FFFFFFFFFFFFFFFFFFFFFFFFFFFFFFFF7F
:10514000FFFFFFFFFFFFFFFFFFFFFFFFFFFFFFFF6F
:10515000FFFFFFFFFFFFFFFFFFFFFFFFFFFFFFFF5F
:10516000FFFFFFFFFFFFFFFFFFFFFFFFFFFFFFFF4F
:10517000FFFFFFFFFFFFFFFFFFFFFF18C6FFFFFF5F
:10518000FFFFFFFFFFFFFFFFFFFFFFFFFF18C61836
:10519000C618C6FFFFFFFFFFFFFFFFFFFFFFFFFF78
:1051A000FFFFFFFFFFFFFFFFFFFFFFFFFFFFFFFF0F
:1051B000FFFFFFFFFFFFFFFFFFFFFFFFFFFFFFFFFF
:1051C000FFFFFFFFFFFFFFFFFFFFFFFFFFFFFFFFEF
:1051D000FFFFFFFFFFFFFFFFFFFFFFFFFFFFFFFFDF
:1051E000FFFFFFFFFFFFFFFFFFFFFFFFFFFFFFFFCF
:1051F000FFFFFFFFFFFFFFFFFFFFFFFFFFFFFFFFBF
:10520000FFFFFFFFFFFFFFFFFFFFFFFFFFFFFFFFAE
:10521000FFFFFFFFFFFFFFFFFFFFFFFFFFFFFFFF9E
:10522000FFFFFFFFFFFFFFFFFFFFFFFFFFFFFFFF8E
:10523000FFFFFFFFFFFFFFFFFFFFFFFFFFFFFFFF7E
:10524000FFFFFFFFFFFFFFFFFFFFFFFFFFFFFFFF6E
:10525000FFFFFFFFFFFFFFFFFFFFFFFFFFFFFFFF5E
:10526000FFFFFFFFFFFFFFFFFFFFFFFFFFFFFFFF4E
:10527000FFFFFFFFFF108018C6108418C618C6FF76
:10528000FFFFFFFFFFFFFFFFFFFFFFFFFFFFFF1815
:10529000C6FFFFFFFFFFFFFFFFFFFFFFFFFFFF183E
:1052A000C610841084FFFFFFFFFFFFFFFFFFFFFF1B
:1052B000FF10841084FFFFFFFFFFFFFFFFFFFFFFD2
:1052C000FF1084108418C6FFFFFFFFFFFFFFFFFFE2
:1052D000FFFFFF108418C6FFFFFFFFFFFFFFFFFF68
:1052E000FFFFFFFFFFFFFFFFFFFFFFFFFFFFFFFFCE
:1052F000FFFFFFFFFFFFFFFFFFFFFFFFFFFFFFFFBE
:10530000FFFFFFFFFFFFFFFFFFFFFFFFFFFFFFFFAD
:10531000FFFFFFFFFFFFFFFFFFFFFFFFFFFFFFFF9D
:10532000FFFFFFFFFFFFFFFFFFFFFFFFFFFFFFFF8D
:10533000FFFFFFFFFFFFFFFFFFFFFFFFFFFFFFFF7D
:10534000FFFFFFFFFFFFFFFFFFFFFFFFFFFFFFFF6D
:10535000FFFFFFFFFFFFFFFFFFFFFFFFFFFFFFFF5D
:10536000FFFFFFFFFFFFFFFFFFFFFFFFFFFFFFFF4D
:10537000FFFFFFFFFF108400F81084108418C6FFA1
:10538000FFFFFFFFFFFFFFFFFFFFFF1084108410F0
:10539000841084FFFFFFFFFFFFFFFFFFFFFFFFFF02
:1053A000FF18C618C6FFFFFFFFFFFFFFFFFFFF103C
:1053B00084FFFF18C6FFFFFFFFFFFFFFFFFFFF187F
:1053C000C618C6FFFF18C6FFFFFFFFFFFFFFFFFF66
:1053D000FF18C61084FFFFFFFFFFFFFFFFFFFFFF67
:1053E000FFFFFFFFFFFFFFFFFFFFFFFFFFFFFFFFCD
:1053F000FFFFFFFFFFFFFFFFFFFFFFFFFFFFFFFFBD
:10540000FFFFFFFFFFFFFFFFFFFFFFFFFFFFFFFFAC
:10541000FFFFFFFFFFFFFFFFFFFFFFFFFFFFFFFF9C
:10542000FFFFFFFFFFFFFFFFFFFFFFFFFFFFFFFF8C
:10543000FFFFFFFFFFFFFFFFFFFFFFFFFFFFFFFF7C
:10544000FFFFFFFFFFFFFFFFFFFFFFFFFFFFFFFF6C
:10545000FFFFFFFFFFFFFFFFFFFFFFFFFFFFFFFF5C
:10546000FFFFFFFFFFFFFFFFFFFFFFFFFFFFFFFF4C
:10547000FFFFFFFFFF00F818C618C61084FFFFFFEC
:10548000FFFFFFFFFFFFFFFFFFFFFFFFFF18C6FF4C
:10549000FFFFFFFFFFFFFFFFFFFFFFFFFFFFFF100B
:1054A0008418C6FFFFFFFFFFFFFFFFFFFFFFFF1096
:1054B00084FFFF1084FFFFFFFFFFFFFFFFFFFF18C8
:1054C000C618C618C618C6FFFFFFFFFFFFFFFFFF85
:1054D000FF10841080FFFFFFFFFFFFFFFFFFFFFFB4
:1054E000FFFFFFFFFFFFFFFFFFFFFFFFFFFFFFFFCC
:1054F000FFFFFFFFFFFFFFFFFFFFFFFFFFFFFFFFBC
:10550000FFFFFFFFFFFFFFFFFFFFFFFFFFFFFFFFAB
:10551000FFFFFFFFFFFFFFFFFFFFFFFFFFFFFFFF9B
:10552000FFFFFFFFFFFFFFFFFFFFFFFFFFFFFFFF8B
:10553000FFFFFFFFFFFFFFFFFFFFFFFFFFFFFFFF7B
:10554000FFFFFFFFFFFFFFFFFFFFFFFFFFFFFFFF6B
:10555000FFFFFFFFFFFFFFFFFFFFFFFFFFFFFFFF5B
:10556000FFFFFFFFFFFFFFFFFFFFFFFFFFFFFFFF4B
:10557000FFFFFF18C618C6108010841080FFFFFFC1
:10558000FFFFFFFFFFFFFFFFFFFFFFFFFF1084FF95
:10559000FFFFFFFFFFFFFFFFFFFFFFFFFF18C6102A
:1055A0008418C6FFFFFFFFFFFFFFFFFFFFFFFF188D
:1055B000C61084FFFFFFFFFFFFFFFFFFFFFFFFFF9E
:1055C000FF108418C6FFFFFFFFFFFFFFFFFFFFFF75
:1055D000FFFFFF18C6FFFFFFFFFFFFFFFFFFFFFFFB
:1055E000FFFFFFFFFFFFFFFFFFFFFFFFFFFFFFFFCB
:1055F000FFFFFFFFFFFFFFFFFFFFFFFFFFFFFFFFBB
:10560000FFFFFFFFFFFFFFFFFFFFFFFFFFFFFFFFAA
:10561000FFFFFFFFFFFFFFFFFFFFFFFFFFFFFFFF9A
:1057F000FFFFFFFFFFFFFFFFFF00000000010203AC
:105800000401020304060708090000002C580008E0
:1058100000000020340000007827000860580008CD
:1058200034000020540500008827000800127A0088
:105830000000000000000000010203040607080940
:105840000C0000000000000000000000000000004C
:105850000000000000000000000000000000000048
:04000005080000BD32
:00000001FF
